{
  "address": "0x7298BFa6Ace8f3b0Fa5592AA0514BD942dC42203",
  "abi": [
    {
      "inputs": [
        {
          "internalType": "address[]",
          "name": "owners",
          "type": "address[]"
        }
      ],
      "stateMutability": "nonpayable",
      "type": "constructor"
    },
    {
      "anonymous": false,
      "inputs": [
        {
          "indexed": true,
          "internalType": "address",
          "name": "tokenAddress",
          "type": "address"
        },
        {
          "indexed": true,
          "internalType": "address",
          "name": "recipient",
          "type": "address"
        },
        {
          "indexed": false,
          "internalType": "uint256",
          "name": "amount",
          "type": "uint256"
        },
        {
          "indexed": false,
          "internalType": "string",
          "name": "reason",
          "type": "string"
        }
      ],
      "name": "ERC20Sent",
      "type": "event"
    },
    {
      "anonymous": false,
      "inputs": [
        {
          "indexed": true,
          "internalType": "address",
          "name": "tokenAddress",
          "type": "address"
        },
        {
          "indexed": true,
          "internalType": "address",
          "name": "recipient",
          "type": "address"
        },
        {
          "indexed": false,
          "internalType": "uint256",
          "name": "tokenId",
          "type": "uint256"
        },
        {
          "indexed": false,
          "internalType": "string",
          "name": "reason",
          "type": "string"
        }
      ],
      "name": "ERC721Sent",
      "type": "event"
    },
    {
      "anonymous": false,
      "inputs": [
        {
          "indexed": true,
          "internalType": "address",
          "name": "recipient",
          "type": "address"
        },
        {
          "indexed": false,
          "internalType": "uint256",
          "name": "amount",
          "type": "uint256"
        },
        {
          "indexed": false,
          "internalType": "string",
          "name": "reason",
          "type": "string"
        }
      ],
      "name": "EtherSent",
      "type": "event"
    },
    {
      "inputs": [],
      "name": "ensContract",
      "outputs": [
        {
          "internalType": "contract ENSContract",
          "name": "",
          "type": "address"
        }
      ],
      "stateMutability": "view",
      "type": "function"
    },
    {
      "inputs": [
        {
          "internalType": "address",
          "name": "",
          "type": "address"
        }
      ],
      "name": "isOwner",
      "outputs": [
        {
          "internalType": "bool",
          "name": "",
          "type": "bool"
        }
      ],
      "stateMutability": "view",
      "type": "function"
    },
    {
      "inputs": [
        {
          "internalType": "address payable",
          "name": "recipient",
          "type": "address"
        },
        {
          "internalType": "uint256",
          "name": "amount",
          "type": "uint256"
        },
        {
          "internalType": "string",
          "name": "reason",
          "type": "string"
        }
      ],
      "name": "sendEther",
      "outputs": [],
      "stateMutability": "nonpayable",
      "type": "function"
    },
    {
      "inputs": [
        {
          "internalType": "string",
          "name": "newName",
          "type": "string"
        }
      ],
      "name": "setName",
      "outputs": [],
      "stateMutability": "nonpayable",
      "type": "function"
    },
    {
      "inputs": [
        {
          "internalType": "address",
          "name": "tokenAddress",
          "type": "address"
        },
        {
          "internalType": "address",
          "name": "recipient",
          "type": "address"
        },
        {
          "internalType": "uint256",
          "name": "amount",
          "type": "uint256"
        },
        {
          "internalType": "string",
          "name": "reason",
          "type": "string"
        }
      ],
      "name": "transferERC20",
      "outputs": [],
      "stateMutability": "nonpayable",
      "type": "function"
    },
    {
      "inputs": [
        {
          "internalType": "address",
          "name": "tokenAddress",
          "type": "address"
        },
        {
          "internalType": "address",
          "name": "recipient",
          "type": "address"
        },
        {
          "internalType": "uint256",
          "name": "tokenId",
          "type": "uint256"
        },
        {
          "internalType": "string",
          "name": "reason",
          "type": "string"
        }
      ],
      "name": "transferERC721",
      "outputs": [],
      "stateMutability": "nonpayable",
      "type": "function"
    },
    {
      "inputs": [
        {
          "internalType": "address",
          "name": "_owner",
          "type": "address"
        },
        {
          "internalType": "bool",
          "name": "_isOwner",
          "type": "bool"
        }
      ],
      "name": "updateOwner",
      "outputs": [],
      "stateMutability": "nonpayable",
      "type": "function"
    },
    {
      "stateMutability": "payable",
      "type": "receive"
    }
  ],
  "transactionHash": "0x61bd93c655af9836f3d8de8e0d1f46b8e2b8c9768e5476407a2e7d65bb4c6517",
  "args": [
    [
      "0x24a81Ca18B220388563fBD751ac0b911a17a3Bc3",
      "0x34aA3F359A9D614239015126635CE7732c18fDF3",
      "0x53E90aA7edDEdB58A2Da1698028501C56C53978F"
    ]
  ],
  "numDeployments": 1,
  "solcInputHash": "f10bd6229c536a98e248161d9d445aa3",
  "bytecode": "0x60a060405273a58e81fe9b61b5c3fe2afd33cf304c454abfc7cb6080523480156200002957600080fd5b5060405162000bac38038062000bac8339810160408190526200004c91620000f5565b60005b8151811015620000ba576001600080848481518110620000735762000073620001c7565b6020908102919091018101516001600160a01b03168252810191909152604001600020805460ff191691151591909117905580620000b181620001dd565b9150506200004f565b505062000205565b634e487b7160e01b600052604160045260246000fd5b80516001600160a01b0381168114620000f057600080fd5b919050565b600060208083850312156200010957600080fd5b82516001600160401b03808211156200012157600080fd5b818501915085601f8301126200013657600080fd5b8151818111156200014b576200014b620000c2565b8060051b604051601f19603f83011681018181108582111715620001735762000173620000c2565b6040529182528482019250838101850191888311156200019257600080fd5b938501935b82851015620001bb57620001ab85620000d8565b8452938501939285019262000197565b98975050505050505050565b634e487b7160e01b600052603260045260246000fd5b600060018201620001fe57634e487b7160e01b600052601160045260246000fd5b5060010190565b608051610985620002276000396000818160d701526103fe01526109856000f3fe6080604052600436106100745760003560e01c8063a3a36eee1161004e578063a3a36eee14610133578063c47f002714610153578063d2d97c6614610173578063e22c45151461019357600080fd5b80632f54bf6e146100805780636881e763146100c5578063694c2d9d1461011157600080fd5b3661007b57005b600080fd5b34801561008c57600080fd5b506100b061009b36600461066b565b60006020819052908152604090205460ff1681565b60405190151581526020015b60405180910390f35b3480156100d157600080fd5b506100f97f000000000000000000000000000000000000000000000000000000000000000081565b6040516001600160a01b0390911681526020016100bc565b34801561011d57600080fd5b5061013161012c366004610732565b6101b3565b005b34801561013f57600080fd5b5061013161014e36600461078b565b6102ce565b34801561015f57600080fd5b5061013161016e3660046107f7565b6103b8565b34801561017f57600080fd5b5061013161018e366004610842565b610468565b34801561019f57600080fd5b506101316101ae36600461078b565b610529565b3360009081526020819052604090205460ff166101eb5760405162461bcd60e51b81526004016101e29061087b565b60405180910390fd5b6000836001600160a01b03168360405160006040518083038185875af1925050503d8060008114610238576040519150601f19603f3d011682016040523d82523d6000602084013e61023d565b606091505b50509050806102855760405162461bcd60e51b81526020600482015260146024820152732330b4b632b2103a379039b2b7321022ba3432b960611b60448201526064016101e2565b836001600160a01b03167f5b5bcab75e47ac8cbe627e56f355a48318d2f03d0832d12fefa63c79e67909e084846040516102c0929190610906565b60405180910390a250505050565b3360009081526020819052604090205460ff166102fd5760405162461bcd60e51b81526004016101e29061087b565b6040516323b872dd60e01b81523060048201526001600160a01b038481166024830152604482018490528516906323b872dd90606401600060405180830381600087803b15801561034d57600080fd5b505af1158015610361573d6000803e3d6000fd5b50505050826001600160a01b0316846001600160a01b03167fcd09c08d9c2284defc5439dd5f78141484d5f84236ad10c5e2d8ff7cdd8a076184846040516103aa929190610906565b60405180910390a350505050565b3360009081526020819052604090205460ff166103e75760405162461bcd60e51b81526004016101e29061087b565b60405163c47f002760e01b81526001600160a01b037f0000000000000000000000000000000000000000000000000000000000000000169063c47f00279061043390849060040161091f565b600060405180830381600087803b15801561044d57600080fd5b505af1158015610461573d6000803e3d6000fd5b5050505050565b3360009081526020819052604090205460ff166104975760405162461bcd60e51b81526004016101e29061087b565b336001600160a01b038316036104fe5760405162461bcd60e51b815260206004820152602660248201527f596f752063616e6e6f742072656d6f766520796f757273656c6620617320616e6044820152651037bbb732b960d11b60648201526084016101e2565b6001600160a01b03919091166000908152602081905260409020805460ff1916911515919091179055565b3360009081526020819052604090205460ff166105585760405162461bcd60e51b81526004016101e29061087b565b60405163a9059cbb60e01b81526001600160a01b0384811660048301526024820184905285169063a9059cbb906044016020604051808303816000875af11580156105a7573d6000803e3d6000fd5b505050506040513d601f19601f820116820180604052508101906105cb9190610932565b61060e5760405162461bcd60e51b815260206004820152601460248201527304661696c656420746f2073656e642045524332360641b60448201526064016101e2565b826001600160a01b0316846001600160a01b03167f60b3478ffe23a575be4b2890abd303edc2f56d50eaf3cceb28b3e7a1259996ca84846040516103aa929190610906565b6001600160a01b038116811461066857600080fd5b50565b60006020828403121561067d57600080fd5b813561068881610653565b9392505050565b634e487b7160e01b600052604160045260246000fd5b600082601f8301126106b657600080fd5b813567ffffffffffffffff808211156106d1576106d161068f565b604051601f8301601f19908116603f011681019082821181831017156106f9576106f961068f565b8160405283815286602085880101111561071257600080fd5b836020870160208301376000602085830101528094505050505092915050565b60008060006060848603121561074757600080fd5b833561075281610653565b925060208401359150604084013567ffffffffffffffff81111561077557600080fd5b610781868287016106a5565b9150509250925092565b600080600080608085870312156107a157600080fd5b84356107ac81610653565b935060208501356107bc81610653565b925060408501359150606085013567ffffffffffffffff8111156107df57600080fd5b6107eb878288016106a5565b91505092959194509250565b60006020828403121561080957600080fd5b813567ffffffffffffffff81111561082057600080fd5b61082c848285016106a5565b949350505050565b801515811461066857600080fd5b6000806040838503121561085557600080fd5b823561086081610653565b9150602083013561087081610834565b809150509250929050565b60208082526025908201527f4f6e6c7920746865206f776e65722063616e2063616c6c20746869732066756e60408201526431ba34b7b760d91b606082015260800190565b6000815180845260005b818110156108e6576020818501810151868301820152016108ca565b506000602082860101526020601f19601f83011685010191505092915050565b82815260406020820152600061082c60408301846108c0565b60208152600061068860208301846108c0565b60006020828403121561094457600080fd5b81516106888161083456fea264697066735822122075b5a57cdb215e5cf70fadfc9678e391fa4868c9ffe246101b4cbd0199fd706664736f6c63430008110033",
  "devdoc": {
    "kind": "dev",
    "methods": {},
    "version": 1
  },
  "userdoc": {
    "kind": "user",
    "methods": {},
    "version": 1
  },
  "storageLayout": {
    "storage": [
      {
        "astId": 37,
        "contract": "contracts/BonusBuidlGuidl.sol:BonusBuidlGuidl",
        "label": "isOwner",
        "offset": 0,
        "slot": "0",
        "type": "t_mapping(t_address,t_bool)"
      }
    ],
    "types": {
      "t_address": {
        "encoding": "inplace",
        "label": "address",
        "numberOfBytes": "20"
      },
      "t_bool": {
        "encoding": "inplace",
        "label": "bool",
        "numberOfBytes": "1"
      },
      "t_mapping(t_address,t_bool)": {
        "encoding": "mapping",
        "key": "t_address",
        "label": "mapping(address => bool)",
        "numberOfBytes": "32",
        "value": "t_bool"
      }
    }
  }
}